:100000000C9434000C9451000C9451000C94510049
:100010000C9451000C9451000C9451000C9451001C
:100020000C9451000C9451000C9451000C947D00E0
:100030000C9451000C9451000C9451000C945100FC
:100040000C9453000C9451000C9451000C945100EA
:100050000C9451000C9451000C9451000C945100DC
:100060000C9451000C94510011241FBECFEFD8E026
:10007000DEBFCDBF11E0A0E0B1E0EAE7F1E002C0F1
:1000800005900D92A030B107D9F721E0A0E0B1E0D2
:1000900001C01D92A230B207E1F70E94AA000C94A1
:1000A000BB000C9400001F920F920FB60F92112408
:1000B0008F93809101018F5F809301018C3348F011
:1000C00080910001882329F0109201011092000113
:1000D00016BC809101018C3350F080910001811198
:1000E00006C01092010181E08093000116BC8F913F
:1000F0000F900FBE0F901F9018951F920F920FB682
:100100000F9211248F939F9395B184E0892785B92D
:100110009F918F910F900FBE0F901F90189587E0C1
:1001200084B90895E0E8F0E080818360808385E011
:1001300080938100EFE6F0E08081826080838AE036
:1001400090E090938900809388001092850010922F
:10015000840008950E948F000E94920078948091FC
:100160000001882321F085B1826085B9F8CF85B17F
:0A0170008D7F85B9F4CFF894FFCF1E
:00000001FF
