:100000000C9434000C9488000C9446000C94460028
:100010000C9446000C9446000C9446000C94460048
:100020000C9446000C9446000C9446000C94C600B8
:100030000C9446000C9446000C9446000C94460028
:100040000C94A9000C9446000C9446000C944600B5
:100050000C9446000C9446000C9446000C94460008
:100060000C9446000C94460011241FBECFEFD8E03C
:10007000DEBFCDBF21E0A0E0B1E001C01D92A23003
:10008000B207E1F70E94D8000C942D010C940000F7
:10009000E9E6F0E08081826080838DB381608DBB72
:1000A000089584B1836284B98AB1806E8AB98AB1B5
:1000B0008B7F8AB98BB184608BB9089585B58360D5
:1000C00085BDEEE6F0E08081816080830895109226
:1000D00085001092840081E19AE7909389008093D3
:1000E0008800E1E8F0E0808188608083A0E8B0E0EB
:1000F0008C9180648C93808185608083EFE6F0E052
:1001000080818260808308958BB18F718BB908954F
:100110001F920F920FB60F9211248F939F9380918D
:100120000101811103C081E08093010180910101EF
:10013000813041F416BC95B180E2892785B982E00F
:10014000809301019F918F910F900FBE0F901F9090
:1001500018951F920F920FB60F9211248F939F93B1
:10016000809100018F5F8093000190910101923096
:1001700031F4883C20F010920101109200019F910F
:100180008F910F900FBE0F901F9018951F920F9296
:100190000FB60F9211248F939F9395B181E0892719
:1001A00085B99F918F910F900FBE0F901F9018955A
:1001B000F8940E9451000E9467000E945E000E9415
:1001C0004800789480E08130B1F028F0823019F155
:1001D000833099F1F8CF0E9484008BB180628BB993
:1001E0002FEF3FE483EC215030408040E1F700C026
:1001F000000081E0E8CF0E9484008BB180668BB95B
:100200009FEF27EA31E6915020403040E1F700C0EF
:10021000000082E0D8CF0E9484008BB180688BB947
:100220008FEF93E224EF30E0815090402040304047
:10023000D9F700C0000083E0C6CF0E9484008BB1D4
:1002400080648BB98FEF97EA21E68150904020407F
:0E025000E1F700C0000080E0B6CFF894FFCFC9
:00000001FF
