:100000000C9434000C9497010C9451000C94510002
:100010000C9451000C9451000C9451000C9451001C
:100020000C9451000C9451000C9451000C9451000C
:100030000C9451000C9451000C9451000C945100FC
:100040000C94B2010C9451000C9451000C9451008A
:100050000C9451000C9439030C9451000C945100F1
:100060000C9451000C94510011241FBECFEFD8E026
:10007000DEBFCDBF11E0A0E0B1E0E8ECFAE002C0E5
:1000800005900D92A833B107D9F721E0A8E3B1E0BC
:1000900001C01D92A234B207E1F70E94D4010C9472
:1000A00062050C94000084B1806284B984B18061DF
:1000B00084B984B1886084B984B1846084B984B11E
:1000C000826084B984B1816084B9089595B19F7DBF
:1000D00095B988231CF495B1906295B995B19F7E2E
:1000E00095B986FF03C095B1906195B995B1977F99
:1000F00095B985FF03C095B1986095B995B19B7F7F
:1001000095B984FF03C085B1846085B985B18260EB
:1001100085B985E08A95F1F7000085B18D7F85B9B5
:1001200085E08A95F1F700000895CF93C82F85B137
:10013000816085B985B18D7F85B98C2F0E9466005D
:100140008C2F8295807F0E946600CF910895CF9377
:10015000DF93EC0109C021960E9495008FE391E0A6
:100160000197F1F700C0000088818111F4CFDF9181
:10017000CF910895CF93C82F85B18E7F85B985B172
:100180008D7F85B98C2F0E9466008C2F8295807F91
:100190000E9466008FE391E00197F1F700C0000034
:1001A000CF9108950E9453002FEF81EE94E02150EB
:1001B00080409040E1F700C0000085B18E7F85B996
:1001C00085B18D7F85B980E30E9466008FE39CE94D
:1001D0000197F1F700C0000080E30E9466008FE104
:1001E00093E00197F1F700C0000080E30E946600F1
:1001F0008FE193E00197F1F700C0000088E20E94D0
:1002000066008FE391E00197F1F700C0000088E2FB
:100210000E94BA008FE391E00197F1F700C000005F
:1002200088E00E94BA008FE391E00197F1F700C0E7
:10023000000081E00E94BA008FE79EE30197F1F78A
:1002400000C0000086E00E94BA008FE391E00197B1
:10025000F1F700C000008CE00E94BA008FE391E04B
:100260000197F1F700C000000895CF93DF93CDB759
:10027000DEB761970FB6F894DEBF0FBECDBF91E138
:10028000E0E0F1E0DE01119601900D929A95E1F720
:1002900080680E94BA00CE0101960E94A700619674
:1002A0000FB6F894DEBF0FBECDBFDF91CF9108959A
:1002B00087B117B888B118B8EAE7F0E080818F6895
:1002C0008083ACE7B0E08C9180648C9380818864FB
:1002D00080830895E9E6F0E08081826080838DB3B9
:1002E00081608DBB089585B5836085BDEEE6F0E045
:1002F00080818160808308950F931F93CF93DF9354
:100300008B01EA010E94A70081E191E00E94A70011
:10031000C8010E94A7008FE091E00E94A700CE01D3
:100320000E94A700DF91CF911F910F9108951F9216
:100330000F920FB60F9211248F9380913A01811181
:1003400003C081E080933A0180913A01813021F429
:1003500016BC82E080933A018F910F900FBE0F90F0
:100360001F9018951F920F920FB60F9211248F9322
:100370009F93809139018F5F8093390190913A0169
:10038000923059F4883C48F0809138018F5F809317
:10039000380110923A01109239019F918F910F907C
:1003A0000FBE0F901F90189584B1806284B985B1FB
:1003B0008F7D85B90E94D2000E9473010E946A015C
:1003C0000E9458017894FFCF4F925F926F927F9274
:1003D000AF92BF92CF92DF92EF92FF920F931F9353
:1003E000CF93DF932B013C017A0159010E9409044C
:1003F0008B01072E000C880B990B0E9441049B0176
:10040000AC01C301B2010E949C032B013C0120E01E
:1004100030E00EC0F701E20FF31FC8016AE070E0A0
:100420000E943A05805D8083062F172F2F5F3F4F74
:100430000115110579F780E090E00EC0D701A80FF3
:10044000B91F4C91F901E81BF90B3197EE0DFF1D17
:1004500050815C9340830196A901332314F44F5FCC
:100460005F4F559547958417950744F3E901219609
:10047000F701E20FF31F8EE2808300E010E026C058
:1004800020E030E040E251E4C301B2010E94CD041B
:100490002B013C010E9409046E012FEFC21AD20AFF
:1004A000CE0DDF1D20E3260F2883072E000C880BBE
:1004B000990B0E9441049B01AC01C301B2010E944F
:1004C0009C032B013C010F5F1F4FE6010A151B0522
:1004D000BCF2CE0DDF1D1882DF91CF911F910F91DD
:1004E000FF90EF90DF90CF90BF90AF907F906F9094
:1004F0005F904F900895EF92FF920F931F93CF93C9
:10050000DF93CDB7DEB7A8970FB6F894DEBF0FBE66
:10051000CDBFE82EF62E0CE311E0F8016081718169
:1005200080E090E00E943F0420E030E040EA50E4A8
:100530000E94CD0420E030E040E85AE30E94CD0460
:1005400023E030E0AE014F5F5F4F0E94E401F8010D
:100550006281738180E090E00E943F0420E030E0FF
:1005600040E85AE30E94CD0420E030E048EC52E439
:100570000E94CD0421E030E0AE014B5E5F4F0E944F
:10058000E401F8016481758180E090E00E943F04FD
:1005900020E030E040E85AE30E94CD0420E030E063
:1005A00048EC52E40E94CD0421E030E0AE01415E0F
:1005B0005F4F0E94E401F11030C080E80E94BA0051
:1005C000F1E0EF1681F0EF1620F082E0E816A9F0D6
:1005D0001DC044E151E0BE016F5F7F4F86E191E0B5
:1005E0000E947C0113C04EE151E0BE016B5E7F4F63
:1005F00080E291E00E947C0109C04EE151E0BE0121
:10060000615E7F4F86E291E00E947C0182E00E9461
:10061000BA0080E00E9435011FC0E1E0FE121CC05C
:10062000CE0101960E948F038FE291E00E948F031A
:100630008FE091E00E948F03CE0145960E948F03C8
:100640008FE091E00E948F03CE014F960E948F03AE
:1006500083E391E00E948F03A8960FB6F894DEBF63
:100660000FBECDBFDF91CF911F910F91FF90EF9003
:1006700008951F920F920FB60F9211242F933F935C
:100680004F935F936F937F938F939F93AF93BF939A
:10069000EF93FF9360E0809138010E947B0280918C
:1006A0003801833011F41092380180913B01E82F1A
:1006B000F0E02091780030917900EE0FFF1FE45CAC
:1006C000FE4F318320838F5F80933B01833011F491
:1006D00010923B01E0913B01F0E0EB5CFE4F80812A
:1006E00080937C00EAE7F0E0808180648083FF9162
:1006F000EF91BF91AF919F918F917F916F915F919A
:100700004F913F912F910F900FBE0F901F90189512
:100710009091C00095FFFCCF8093C6000895CF93C1
:10072000DF93EC0103C021960E9488038881811128
:10073000FACFDF91CF9108955058BB27AA270E9486
:10074000B4030C9493040E94850438F00E948C0436
:1007500020F039F49F3F19F426F40C9482040EF42F
:10076000E095E7FB0C947C04E92F0E94A40458F365
:10077000BA17620773078407950720F079F4A6F586
:100780000C94C6040EF4E0950B2EBA2FA02D0B018D
:10079000B90190010C01CA01A0011124FF27591BC6
:1007A00099F0593F50F4503E68F11A16F040A22FCC
:1007B000232F342F4427585FF3CF4695379527953D
:1007C000A795F0405395C9F77EF41F16BA0B620B3C
:1007D000730B840BBAF09150A1F0FF0FBB1F661F83
:1007E000771F881FC2F70EC0BA0F621F731F841FC6
:1007F00048F4879577956795B795F7959E3F08F0EC
:10080000B0CF9395880F08F09927EE0F97958795AD
:1008100008950E9410046894B1110C94C7040895BF
:100820000E94AC0488F09F5798F0B92F9927B751D0
:10083000B0F0E1F0660F771F881F991F1AF0BA9584
:10084000C9F714C0B13091F00E94C604B1E0089518
:100850000C94C604672F782F8827B85F39F0B93F0A
:10086000CCF3869577956795B395D9F73EF4909537
:100870008095709561957F4F8F4F9F4F0895E894B5
:1008800009C097FB3EF490958095709561957F4FD8
:100890008F4F9F4F9923A9F0F92F96E9BB27939586
:1008A000F695879577956795B795F111F8CFFAF496
:1008B000BB0F11F460FF1BC06F5F7F4F8F4F9F4FC7
:1008C00016C0882311F096E911C0772321F09EE825
:1008D000872F762F05C0662371F096E8862F70E08B
:1008E00060E02AF09A95660F771F881FDAF7880F65
:1008F0009695879597F9089597F99F6780E870E036
:1009000060E008959FEF80EC089500240A94161685
:10091000170618060906089500240A9412161306ED
:10092000140605060895092E0394000C11F488237B
:1009300052F0BB0F40F4BF2B11F460FF04C06F5F97
:100940007F4F8F4F9F4F089557FD9058440F551F6D
:1009500059F05F3F71F04795880F97FB991F61F041
:100960009F3F79F087950895121613061406551FB8
:10097000F2CF4695F1DF08C0161617061806991F24
:10098000F1CF86957105610508940895E894BB2719
:1009900066277727CB0197F908950E94E0040C940D
:1009A00093040E94850438F00E948C0420F0952363
:1009B00011F00C947C040C94820411240C94C70450
:1009C0000E94A40470F3959FC1F3950F50E0551F4A
:1009D000629FF001729FBB27F00DB11D639FAA2794
:1009E000F00DB11DAA1F649F6627B00DA11D661FE3
:1009F000829F2227B00DA11D621F739FB00DA11D04
:100A0000621F839FA00D611D221F749F3327A00DBD
:100A1000611D231F849F600D211D822F762F6A2F59
:100A200011249F5750409AF0F1F088234AF0EE0FBE
:100A3000FF1FBB1F661F771F881F91505040A9F7EB
:100A40009E3F510580F00C947C040C94C7045F3FDA
:100A5000E4F3983ED4F3869577956795B795F79527
:100A6000E7959F5FC1F7FE2B880F911D969587959F
:100A700097F9089597FB072E16F4009407D077FD99
:100A800009D00E944E0507FC05D03EF49095819553
:100A90009F4F0895709561957F4F0895AA1BBB1BCA
:100AA00051E107C0AA1FBB1FA617B70710F0A61B6E
:100AB000B70B881F991F5A95A9F780959095BC018F
:080AC000CD010895F894FFCF69
:100AC800202020202020202020202020202020201E
:100AD800003A20005600566F6C7461676500250067
:100AE8004C696768740048756D6964697479002099
:080AF8005620000A00404142B3
:00000001FF
