S01800004763634170706C69636174696F6E31332E7372656327
S113000045C0000053C0000051C000004FC00000B4
S11300104DC000004BC0000049C0000047C00000B4
S113002045C0000043C0000041C000003FC00000C4
S11300303DC000003BC0000039C0000037C00000D4
S113004035C0000033C0000031C000002FC00000E4
S11300502DC000002BC0000029C0000027C00000F4
S113006025C0000023C0000021C000001FC0000004
S11300701DC000001BC0000019C0000017C0000014
S113008015C0000013C0000011C0000011241FBEE1
S1130090CFEFD0E4DEBFCDBF24E0A0E0B1E001C0EB
S11300A01D92A330B207E1F7CCD001C1A9CFFC0166
S11300B09B01220F331F620F731F84B1846084B9C4
S11300C0A5B1AB7F55B15460BFB7F89415C09F017B
S11300D02F5F3F4F408168E055B9000007F447FFA8
S11300E0A5B9440F000007F407F407F4A5B907F411
S11300F06A9591F7BC01F901CB010197672B39F798
S1130100BFBF8FEA94E00197F1F700C000000895A3
S11301100F931F93DC015197A031B105D8F090974C
S1130120A031B105B8F09097A031B10598F090973F
S1130130A031B10578F09097A031B10558F09097AF
S1130140A031B10538F09097A031B10518F090971F
S11301505097A0F41016110644F4000F111F01501B
S11301601109FC01E01BF10B09C0EE27FF27E01B7E
S1130170F10BEE0FFF1F3197E80FF91F3197CF01F5
S1130180880F991FE80FF91FE050FF4F61834083E8
S113019022831F910F9108950F931F93DA01A901F0
S11301A09801181619067CF477236CF4685F7F4F66
S11301B062957295707F7627607F7627FC0138966A
S11301C0E60FF71F37C099238CF41616170674F43C
S11301D0FB013197E295F295F07FFE27E07FFE2741
S11301E0BC0167577F4FE60FF71F24C099237CF4A7
S11301F077236CF4685F7F4F62957295707F7627E2
S1130200607F7627FC013996E60FF71F13C0181696
S1130210190684F4161617066CF4FB013197E2955F
S1130220F295F07FFE27E07FFE27BC0168577F4FE1
S1130230E60FF71F8C01BD01CF016ADF1F910F91FB
S113024008950F931F930FEF10E020E030E040E09B
S113025050E062E070E082E090E09EDF00E010E0B9
S11302602FEF30E040E050E06DEF7FEF8DEF9FEF38
S113027093DF20E030E04FEF50E068EF7FEF88E05D
S113028090E08ADF0FEF10E020E030E040E050E043
S11302906FEF7FEF8FEF9FEF7FDF60E071E080E033
S11302A091E005DF80E090E01F910F910895F894AC
S10502B0FFCF7A
S9030000FC
