:100000000C9434000C943E000C943E000C943E0082
:100010000C943E000C943E000C943E000C943E0068
:100020000C943E000C943E000C943E000C94400056
:100030000C943E000C943E000C943E000C943E0048
:100040000C943E000C943E000C943E000C943E0038
:100050000C943E000C943E000C943E000C943E0028
:100060000C943E000C943E0011241FBECFEFD8E04C
:10007000DEBFCDBF0E9452000C946B000C940000B8
:100080001F920F920FB60F9211248F939F9395B1E9
:1000900080E2892785B99F918F910F900FBE0F90B5
:1000A0001F90189584B1806284B9E1E8F0E0808106
:1000B0008D608083EFE6F0E080818260808381E163
:1000C0009AE790938900809388001092850010929F
:0A00D00084007894FFCFF894FFCF6E
:00000001FF
