S01700004763634170706C69636174696F6E372E7372656355
S113000045C0000061C000005EC000005CC000008C
S11300105AC0000058C0000056C0000054C0000080
S113002052C0000050C000004EC000004CC0000090
S11300304AC0000048C0000046C0000044C00000A0
S113004042C0000040C000003EC000003CC00000B0
S11300503AC0000038C0000036C0000034C00000C0
S113006032C0000030C000002EC000002CC00000D0
S11300702AC0000028C0000026C0000024C00000E0
S113008022C0000020C000001EC0000011241FBEBA
S1130090CFEFD0E4DEBFCDBF11E0A0E0B1E0E2E5F8
S11300A0F4E000E00BBF02C007900D92A630B10748
S11300B0D9F721E0A6E0B1E001C01D92AB30B20750
S11300C0E1F797D0C4C19CCF1F920F920FB60F9245
S11300D011240BB60F922F933F934F935F936F931B
S11300E07F938F939F93AF93BF93EF93FF9381E09D
S11300F080930A014091840050918500809104010D
S113010090910501489F9001499F300D589F300DF3
S11301101124293E334068F080E090E0A0E0B0E490
S11301208093060190930701A0930801B0930901FD
S113013043C04091840050918500849F9001859F25
S1130140300D949F300D11242536310568F480E07C
S113015090E0A0E8BFE38093060190930701A09389
S11301600801B093090128C0409184005091850092
S1130170849F9001859F300D949F300D11243695F6
S113018027953695279536952795A5ECB0E299D015
S1130190929582958F7089279F708927BC016F5F24
S11301A07F4F80E090E03DD060930601709307019B
S11301B0809308019093090185B1826085B9FF910C
S11301C0EF91BF91AF919F918F917F916F915F91CB
S11301D04F913F912F910F900BBE0F900FBE0F9038
S11301E01F901895D8D068EB7BE058D088519C4F6D
S11301F00895F8DF83E084B915B880E197E20097A9
S113020031F0E0E9F1E03197F1F70197F8CF85B1EA
S1130210816085B985B1826085B9789480E090E089
S11302200895E89409C097FB3EF4909580957095E5
S113023061957F4F8F4F9F4F9923A9F0F92F96E92E
S1130240BB279395F695879577956795B795F111A3
S1130250F8CFFAF4BB0F11F460FF1BC06F5F7F4F40
S11302608F4F9F4F16C0882311F096E911C0772352
S113027021F09EE8872F762F05C0662371F096E85B
S1130280862F70E060E02AF09A95660F771F881F2A
S1130290DAF7880F9695879597F9089597FB072EB7
S11302A016F4009406D077FD08D01AD007FC05D0C8
S11302B03EF4909581959F4F0895709561957F4F79
S11302C00895A29FB001B39FC001A39F700D811D2B
S11302D01124911DB29F700D811D1124911D08954B
S11302E0AA1BBB1B51E107C0AA1FBB1FA617B70758
S11302F010F0A61BB70B881F991F5A95A9F7809574
S11303009095BC01CD0108958F929F92AF92BF92B8
S1130310CF92DF92EF92FF92CF93DF93EC0168814B
S113032079818A819B81611571058105910521F48B
S113033064E279ED8BE597E02DE133EF41E050E0A5
S113034038D049015A019B01AC01A7EAB1E44DD070
S11303506B017C01ACEEB4EFA501940152D0DC0139
S1130360CB018C0D9D1DAE1DBF1DB7FF03C00197B2
S1130370A109B04888839983AA83BB839F77DF91BF
S1130380CF91FF90EF90DF90CF90BF90AF909F9070
S11303908F900895B9CF80E091E0B6CFA0E0B0E0AF
S11303A08093000190930101A0930201B093030193
S11303B00895052E97FB16F400940FD057FD05D031
S11303C024D007FC02D046F408C0509540953095DF
S11303D021953F4F4F4F5F4F0895909580957095AD
S11303E061957F4F8F4F9F4F08956BDFA59F900DB1
S11303F0B49F900DA49F800D911D11240895B7FF03
S1130400F4CFF3DF821B930B0895A1E21A2EAA1BEB
S1130410BB1BFD010DC0AA1FBB1FEE1FFF1FA217B0
S1130420B307E407F50720F0A21BB30BE40BF50BAD
S1130430661F771F881F991F1A9469F76095709536
S1130440809590959B01AC01BD01CF010895F8946E
S1050450FFCFD8
S10904520100000024F487
S9030000FC
