:100000000C944F000C94B8080C94B8080C94B808E1
:100010000C94B8080C94B8080C94B8080C94B80860
:100020000C94B8080C94B8080C94B8080C94B80850
:100030000C94B8080C94B8080C94B8080C94B80840
:100040000C94B8080C94B8080C94B8080C94B80830
:100050000C94B8080C94B8080C94B8080C94B80820
:100060000C94B8080C94B8080C94B8080C94B80810
:100070000C94B8080C94B8080C94B8080C94B80800
:100080000C94B8080C94B8080C94B808010001024C
:10009000800102010400117E010401068000112488
:1000A0001FBECFEFD0E4DEBFCDBFECE8F0E040E014
:1000B00019C0B791A79137912791079107FD0EC0FD
:1000C00097918791EF01F92FE82F0BBF07900D92C1
:1000D000A217B307D9F7FE011BBE04C01D92A217D9
:1000E000B307E1F7ED39F40721F70E94AF080C944C
:0600F0008C08F894FFCF1C
:1000F60068076C094C836A9074A07AC0008068888F
:0601060000846C82008100
:07010C00286E756C6C2900E0
:06011300286E696C290052
:10011A00A3EAB0E0E3E9F0E00C94ED074C015901E1
:10012A00C756DF4F488359836A83C959D040212C67
:10013A00312C6E012BE8C20ED11C85E2782E2601E5
:10014A0030E8632ECE018D569F4FC456DF4F9983F8
:10015A008883CC59D0409C0140E8CF55DF4F288393
:10016A0039834A83C15AD040C756DF4F4881C9599B
:10017A00D040C656DF4FB881CA59D040C556DF4F66
:10018A007881CB59D040E42FFB2F572F0E94A80823
:10019A00662309F4D0C3CF57DF4F19821882C1589A
:1001AA00D0408FEF9FEFCD57DF4F99838883C35895
:1001BA00D040CB57DF4F19821882C558D040E1E0B2
:1001CA00F0E0EC0FFD1FC957DF4FF983E883C758EA
:1001DA00D04020E830E0C757DF4F39832883C95819
:1001EA00D040842F9B2FA72FE12CF12CFC015A2FF2
:1001FA000E94A80861111DC0E114F10411F19701D0
:10020A005B2F672FC4010E949807C756DF4F88816A
:10021A009981AA81C959D0408E0D9F1DA11DF7FC55
:10022A00AA95C756DF4F88839983AA83C959D040B4
:10023A0008C00196A11D6532F9F23FEFE31AF30AED
:10024A00D5CFC756DF4F88819981AA81C959D04035
:10025A00FC015A2F0E94A808653209F05AC39C0172
:10026A004A2F2F5F3F4F4F4FC256DF4F28833983A4
:10027A004A83CE59D040C756DF4F288339834A83F1
:10028A00C959D040C756DF4F88819981AA81C95977
:10029A00D040FC015A2F0E94A8086B3241F4CF5774
:1002AA00DF4F28813981C158D04024600BC06C329D
:1002BA00CCF06D3259F5CF57DF4F28813981C158BB
:1002CA00D0402160CF57DF4F39832883C158D040AF
:1002DA000196A11DC756DF4F88839983AA83C959FE
:1002EA00D040D0CF603241F4CF57DF4F28813981D7
:1002FA00C158D0402860E6CF633291F4CF57DF4F20
:10030A0028813981C158D0402061DCCF603341F463
:10031A00CF57DF4F28813981C158D0402260D2CFD0
:10032A006A3299F50196A11DC756DF4F88839983D2
:10033A00AA83C959D040D501ED91FC911197CF01FB
:10034A0002968D939C9380819181CB57DF4F99833D
:10035A008883C558D04097FF3FC0CF57DF4F2881C9
:10036A003981C158D040B1E02B27CF57DF4F3983AD
:10037A002883C158D040919581959109CB57DF4F79
:10038A0099838883C558D04027C0BC018A2F0E9410
:10039A005207CB57DF4F99838883C558D040C75639
:1003AA00DF4F88819981AA81C959D040FC015A2F0F
:1003BA000E94A808062E000C770B605371096A3058
:1003CA00710550F40196A11DC756DF4F88839983A2
:1003DA00AA83C959D040E3CFCF57DF4F888199818B
:1003EA00C158D04080FF07C08D7FCF57DF4F998318
:1003FA008883C158D040C756DF4F88819981AA8126
:10040A00C959D040FC015A2F0E94A8086E3209F03F
:10041A0059C0CD57DF4F19821882C358D0409C016A
:10042A004A2F2F5F3F4F4F4FC756DF4F28833983DD
:10043A004A83C959D040F901542F0E94A8086A3248
:10044A00D1F40296A11DC756DF4F88839983AA83E8
:10045A00C959D040D501ED91FC911197CF0102966F
:10046A008D939C9380819181CD57DF4F99838883A7
:10047A00C358D04027C0842FB9010E945207CD57D4
:10048A00DF4F99838883C358D040C756DF4F88818E
:10049A009981AA81C959D040FC015A2F0E94A80803
:1004AA00062E000C770B605371096A30710550F4FF
:1004BA000196A11DC756DF4F88839983AA83C9591C
:1004CA00D040E3CFCE0187569F4F0E94B706182F20
:1004DA00C756DF4F9881C959D040C656DF4F888129
:1004EA00CA59D040C556DF4F5881CB59D040E92F61
:1004FA00F82F0E94A808862F660F990B0E94A00861
:10050A008936910509F45BC0B4F48336910509F480
:10051A0069C144F48532910509F4A4C18136910573
:10052A0029F1B6C18436910509F449C08836910586
:10053A000CF42FC1ADC18037910509F4CDC04CF43C
:10054A008E36910509F41BC18F36910509F47DC0D9
:10055A009FC18537910509F455C08837910509F47B
:10056A0097C08337910509F093C15BC1612F70E091
:10057A00A501C6010E94CD07892B09F4BAC1C75645
:10058A00DF4F88819981AA81C959D0409C014A2F9D
:10059A002F5F3F4F4F4FC756DF4F288339834A8318
:1005AA00C959D040FC015A2F0E94A808262FA6013B
:1005BA00BE016F577F4FC4010E94B50897C1612FD2
:1005CA0070E0950141E050E0C6010E94A604892B23
:1005DA0009F48FC1C756DF4F88819981AA81C95909
:1005EA00D0400196A11DC756DF4F88839983AA83FD
:1005FA00C959D040A601BE016F577F4FC4010E945E
:10060A00B20874C1612F70E0950140E050E0C60164
:10061A000E94A604892B09F46CC1C756DF4F888152
:10062A009981AA81C959D0400196A11DC756DF4FA9
:10063A0088839983AA83C959D040A601BE016F57FE
:10064A007F4FC4010E94B20851C1612F70E0950129
:10065A0040E050E0C6010E94A604892B09F449C172
:10066A00C756DF4F88819981AA81C959D04001961E
:10067A00A11DC756DF4F88839983AA83C959D040E1
:10068A00A601BE016F577F4FC4010E94B2082EC156
:10069A00612F70E0950140E050E0C6010E94A60477
:1006AA00892B09F426C1C756DF4F88819981AA810F
:1006BA00C959D0409C014A2F2F5F3F4F4F4FC75611
:1006CA00DF4F288339834A83C959D040FC015A2F06
:1006DA000E94A808262F4BC0950140E050E060EF29
:1006EA0070E0C6010E94A604892B09F402C1C7560C
:1006FA00DF4F88819981AA81C959D0400196A11DED
:10070A00C756DF4F88839983AA83C959D04086E0A8
:10071A0023E131E040E0F901DE01AD56BF4F742F0D
:10072A000E946708D6012C9111963C911197129656
:10073A004C91129713965C91139714966C91149797
:10074A0015967C91159716968C91169717969C91EB
:10075A00A0E00E94750851F400E010E0CF55DF4F89
:10076A00288139814A81C15AD040BAC028E7A601F6
:10077A00BE016F577F4FC4010E94B508B7C0612FF1
:10078A0070E09501A1014E0D5F1DC6010E94E605AC
:10079A00B0C0612F70E0A501C6010E94CD07892B68
:1007AA0009F4A7C0C756DF4F88819981AA81C95920
:1007BA00D0409C014A2F2F5F3F4F4F4FC756DF4F04
:1007CA00288339834A83C959D040FC015A2F0E9491
:1007DA00A808262FA601BE016F577F4FC4010E94A9
:1007EA00B50884C0103809F084C0C756DF4F888125
:1007FA009981AA81C959D0400196A11DC756DF4FD8
:10080A0088839983AA83C959D040D501ED91FC9177
:10081A001197CF0102968D939C938081F601808374
:10082A005BC0103809F065C0C756DF4F88819981CF
:10083A00AA81C959D0400196A11DC756DF4F8883A6
:10084A009983AA83C959D040D501ED91FC9111979A
:10085A00CF0103968D939C9320813181428100E0E0
:10086A0010E03EC0103809F044C0C756DF4F8881F7
:10087A009981AA81C959D0400196A11DC756DF4F57
:10088A0088839983AA83C959D040F601708224C00B
:10089A00D6017C92C256DF4F288139814A81CE59CE
:1008AA00D040C756DF4F288339834A83C959D0407D
:1008BA00CF57DF4F19821882C158D040CB57DF4F2C
:1008CA0019821882C558D0408FEF9FEFCD57DF4F5E
:1008DA0099838883C358D04001E010E0462D9201E5
:1008EA00BE016F577F4FC4010E9452068E0D9F1D95
:1008FA0011C0C756DF4F88819981AA81C959D04052
:10090A000196A11DC756DF4F88839983AA83C959C7
:10091A00D040C7017101E80EF91EE214F3044CF449
:10092A008FE490E090930101809300018FEF9FEF95
:10093A0003C0170119CCC101CD55DF4FE2E10C9478
:02094A0009089A
:10094C000F931F93CF93DF93FC01D9016838710586
:10095C0031F194F461387105B1F12CF46038710502
:10096C0009F478C09FC06238710509F459C0643825
:10097C00710509F46FC096C0603A710509F448C05E
:10098C002CF46039710509F44BC08CC0603C7105C6
:10099C0009F476C0603F710509F472C083C0CD9133
:1009AC00DC911197CE0102968D939C93452B39F0D7
:1009BC009881892F880F880B908381835BC08881F5
:1009CC008083118268C0CD91DC911197CE01049681
:1009DC008D939C93452B99F088819981AA81BB8139
:1009EC00AC01BD01770F440B542FBA018083918366
:1009FC00A283B383448345834683478328C00881FD
:100A0C0019812A813B81008311832283338345C062
:100A1C00CD91DC911197CE0102968D939C9323C0BE
:100A2C00CD91DC911197CE0108968D939C93788192
:100A3C0069815A814B813C812D819E818F8170838C
:100A4C00618352834383348325839683878381E038
:100A5C0090E02AC0CD91DC911197CE0102968D9336
:100A6C009C93452BA1F099812881892F880F880BA5
:100A7C002083918382838383848385838683E6CFDB
:100A8C00CD91DC911197CE0102968D939C930881A8
:100A9C0019810083118312821382148215821682AB
:100AAC001782D5CF80E090E0DF91CF911F910F910D
:020ABC0008959B
:100ABE002F923F924F926F927F928F92AF92BF92F0
:100ACE00CF92DF92EF92FF920F931F93CF93DF930C
:100ADE00CDB7DEB766970FB6F894DEBF0FBECDBFAB
:100AEE005C013A01862E6901C701817099279C8BA2
:100AFE008B8BE0FC1DC020173107D4F47801EC1865
:100B0E00FD08FE8AED8AA70191E1E916F10410F0C5
:100B1E0040E150E060E270E0CE0101969A8B898B45
:100B2E000E94970889899A891C0120E8422E0BC0E1
:100B3E009601682DA301C5010E949807C016D10623
:100B4E00ECF2C60125C090E1E916F10458F020E15F
:100B5E0030E0642DA101C5010E94980780E1E81ADA
:100B6E00F108F1CF2D893E892F70332789899A8913
:100B7E00AC0160E8C5010E9498078B899C89892B7E
:100B8E0031F49601682DA301C5010E949807C80192
:100B9E0066960FB6F894DEBF0FBECDBFDF91CF9134
:100BAE001F910F91FF90EF90DF90CF90BF90AF907D
:0E0BBE008F907F906F904F903F902F900895F2
:100BCC00CF93DF93DC01F90164387105D9F164F43A
:100BDC006138710521F16238710509F440C0603843
:100BEC00710509F054C02EC060397105C1F184F44F
:100BFC006838710509F04BC0C081D181CE010296D5
:100C0C0091838083E881F981ED93FC9340833CC010
:100C1C00603A7105B9F0603C7105A1F038C0C08133
:100C2C00D181CE01029691838083E881F981ED9385
:100C3C00FC93052E000C660B770B4083518362836B
:100C4C00738322C0C081D181CE01029691838083AF
:100C5C00E881F981ED93FC935183408315C0C081E9
:100C6C00D181CE01029691838083E881F981ED9345
:100C7C00FC9351834083852F880F880B8283838359
:100C8C00848385838683878381E090E002C080E043
:080C9C0090E0DF91CF91089573
:100CA4002F923F924F926F927F928F92AF92BF9208
:100CB400CF92DF92EF92FF920F931F93CF93DF9324
:100CC400CDB7DEB727970FB6F894DEBF0FBECDBF02
:100CD4006C017B013901842E98018CE0282E81E07F
:100CE400382E80E0482E87E0F101AE014F5F5F4F60
:100CF400DA01742D0E946708F70102811381A48030
:100D0400B580E080F18061147104810419F43A0122
:100D1400F0E88F2E2115310529F4882DB3010E94A6
:100D240055089C0117FD04C00217130708F4980125
:100D34008501682DA301C6010E945F0527960FB6A1
:100D4400F894DEBF0FBECDBFDF91CF911F910F91FD
:100D5400FF90EF90DF90CF90BF90AF908F907F90F7
:0A0D64006F904F903F902F9008957C
:100D6E00CF92DF92EF92DC0190E0292F30E0220F3C
:100D7E00331F6901032E000CEE086E2DA6014A509A
:100D8E005F4F6F4F6A01E62EFA015E2D0E94A80892
:100D9E00862F61110EC02F5F3F4F032E000C440BA8
:100DAE002A503F4F4F4FF901542F0E94A808862F0B
:100DBE0025C0CD90DD90EC901297F6015E2D0E942D
:100DCE00A808861316C02F5F3F4F032E000C440B4E
:100DDE002A503F4F4F4FF901542F0E94A808962FCB
:100DEE005FEFC51AD50AE50ACD92DD92EC92129705
:100DFE0001C09F5F9B3008F4B8CF892FEF90DF9032
:040E0E00CF900895E4
:100E12000F931F93CF93DF93DB012D913C91119799
:100E220030FF25C017964D915C91189715962D911C
:100E32003C9116974217530778F41296ED91FC9164
:100E42001397808312962D913C9113972F5F3F4FFA
:100E520013963C932E93129717962D913C911897C7
:100E62002F5F3F4F18963C932E93179715C01D96F0
:100E7200ED91FC911E97309719F48FEF9FEF0CC004
:100E82008B01EC010995892BC1F7F80187819085C7
:100E9200019690878783CE01DF91CF911F910F91A9
:020EA2000895B1
:100EA400CF939B01482FF901542F0E94A808603268
:100EB400B9F1862F062E000C990B0997059780F13E
:100EC4006B3249F5A0E0B0E02F5F3F4F4F4F02C0B7
:100ED400A0E0B0E080E090E0CAE0F901542F0E9465
:100EE400A808062E000C770B605371096A3071054F
:100EF40060F4C89FF001C99FF00D11242F5F3F4F8C
:100F04004F4FCF01861B970BE8CFAB2B69F491951C
:100F14008195910909C06D32D9F6A1E0B0E0D4CF32
:0C0F24002F5F3F4F4F4FBFCFCF9108957C
:100F30006F927F928F92CF92DF92EF920F931F93D7
:100F4000CF93DF938C016A01E62EE9013A01862EE8
:100F5000620E731E811C37FD8A94C614D704E80400
:100F600081F0F6015E2D0E94A808862FB801082E98
:100F7000000C990B0E9409078FEFC81AD80AE80ADB
:100F8000ECCFCE01DF91CF911F910F91EF90DF90C9
:0A0F9000CF908F907F906F9008952E
:100F9A00FA0160387105CCF0623871051CF06338CB
:100FAA00710599F4A081B1819D012C5F3F4F318376
:100FBA0020834D915D916D917C91FC014083518319
:100FCA006283738381E090E0089580E090E0089561
:100FDA002F923F924F925F926F927F928F929F923F
:100FEA00AF92BF92CF92DF92EF92FF920F931F932D
:100FFA00CF93DF93CDB7DEB7CA1BDB0B0FB6F894DE
:08100A00DEBF0FBECDBF09944B
:101012002A88398848885F846E847D848C849B8486
:10102200AA84B984C884DF80EE80FD800C811B8194
:10103200AA81B981CE0FD11D0FB6F894DEBF0FBEC3
:06104200CDBFED01089591
:10104800A0E0B0E0EAE2F8E00C94FD079E012B5F17
:101058003F4FF9014191519161919F01E091020146
:10106800F0910301808191810E943D08E2E00C9497
:02107800190855
:10107A00A2E0B0E0E3E4F8E00C94FB078C013A83C9
:10108A0029839E012F5F3F4F0E948D00F801208126
:10109A0024FF02C08FEF9FEF2296E4E00C9417081A
:1010AA009B01482FA82FCB01FC015A2F0E94A808A8
:1010BA00662319F00196A11DF7CF642FA901841B9D
:0410CA00950B0895E5
:1010CE00992777FD06C07BBF07900D920197E1F738
:0C10DE00089501900D920197E1F708952C
:1010EA000024A7FD00942A17300540055005600525
:0810FA007005800590050895C2
:101102001F928CE68F938FE68F930E9424080F9094
:061112000F900F900895FC
:10111800EC010E94BD080E94BC08CE010E94BE08D6
:06112800CE010E94BA088E
:10112E00FC01480F591FE417F50711F06193FBCF2F
:02113E00089512
:101140009C01215431092A31310508F48062089547
:0E11500057FD03C05BBF67910895608108954D
:06115E000E948108FDCF94
:0611640080E090E0089518
:06116A0080E090E0089512
:041170000C940000DB
:041174000E9479005C
:021178000895D8
:02117A000895D6
:02117C000895D4
:02117E0004016A
:00000001FF
