:1000000045C0000061C000005EC000005CC0000090
:100010005AC0000058C0000056C0000054C0000084
:1000200052C0000050C000004EC000004CC0000094
:100030004AC0000048C0000046C0000044C00000A4
:1000400042C0000040C0000070C000003CC0000082
:100050003AC0000038C0000036C0000034C00000C4
:1000600032C0000030C000002EC000002CC00000D4
:100070002AC0000028C0000026C0000024C00000E4
:1000800022C0000020C000001EC0000011241FBEBE
:10009000CFEFD0E4DEBFCDBF11E0A0E0B1E0E4E6F9
:1000A000F4E000E00BBF02C007900D92A430B1074E
:1000B000D9F721E0A4E0B1E001C01D92AE30B20753
:1000C000E1F78BD0CDC19CCF1F920F920FB60F924C
:1000D00011248F939F93AF93BF9380910A019091C6
:1000E0000B010197C9F4809184009091850083E30E
:1000F00093E3A3EBBFE38093060190930701A093E2
:100100000801B093090185B1826085B983E090E070
:1001100090930B0180930A01BF91AF919F918F91B2
:100120000F900FBE0F901F9018951F920F920FB651
:100130000F9211242F933F934F938F939F9380910E
:100140000C0190910D01019690930D0180930C018B
:10015000309B14C080910401909105014EE3489FAB
:100160009001499F300D112480910C0190910D0157
:100170008217930718F088B18E7F88B930990EC026
:1001800080910C0190910D01813E944038F088B12E
:10019000816088B910920D0110920C019F918F918E
:1001A0004F913F912F910F900FBE0F901F90189578
:1001B00082E090E09093050180930401089581E02E
:1001C00090E090930501809304010895DED060EDE6
:1001D00077E06DD08053984F0895F8DFAC018FEF32
:1001E00087B916BC95B5916095BDEEE6F0E09081BB
:1001F00091609083E4E8F0E02081318124603183D4
:100200002083E1E8F0E09081946090838FE084B9EE
:1002100015B81AB884E08BB982E08093690081E058
:100220008DBB789480910A0190910B0182309105E9
:10023000D1F020E030E0421753073CF080EA9FE025
:100240000197F1F72F5F3F4FF6CF95B1916095B9C8
:10025000109285001092840081E090E090930B0151
:1002600080930A01DFCF83309105E9F7A1DF80E1B8
:1002700097E2009731F0E0E9F1E03197F1F701976B
:10028000F8CF9DDF80E593EC009731F0E0E9F1E0F5
:100290003197F1F70197F8CF8BDF80E395E700976F
:1002A00029F3E0E9F1E03197F1F70197F8CF97FBF7
:1002B000072E16F4009406D077FD08D00BD007FC6B
:1002C00005D03EF4909581959F4F08957095619566
:1002D0007F4F0895AA1BBB1B51E107C0AA1FBB1F7C
:1002E000A617B70710F0A61BB70B881F991F5A95C2
:1002F000A9F780959095BC01CD0108958F929F92AA
:10030000AF92BF92CF92DF92EF92FF92CF93DF93A3
:10031000EC01688179818A819B8161157105810574
:10032000910521F464E279ED8BE597E02DE133EF5F
:1003300041E050E038D049015A019B01AC01A7EAE5
:10034000B1E44DD06B017C01ACEEB4EFA50194019A
:1003500052D0DC01CB018C0D9D1DAE1DBF1DB7FF22
:1003600003C00197A109B04888839983AA83BB83FE
:100370009F77DF91CF91FF90EF90DF90CF90BF906C
:10038000AF909F908F900895B9CF80E091E0B6CF65
:10039000A0E0B0E08093000190930101A0930201DE
:1003A000B09303010895052E97FB16F400940FD027
:1003B00057FD05D024D007FC02D046F408C0509564
:1003C0004095309521953F4F4F4F5F4F0895909541
:1003D0008095709561957F4F8F4F9F4F089531D0D5
:1003E000A59F900DB49F900DA49F800D911D112489
:1003F0000895B7FFF4CFF3DF821B930B0895A1E2BA
:100400001A2EAA1BBB1BFD010DC0AA1FBB1FEE1F8E
:10041000FF1FA217B307E407F50720F0A21BB30BD9
:10042000E40BF50B661F771F881F991F1A9469F755
:1004300060957095809590959B01AC01BD01CF01B1
:100440000895A29FB001B39FC001A39F700D811DAD
:100450001124911DB29F700D811D1124911D0895CD
:04046000F894FFCF3E
:040464000100000093
:00000001FF
