S01700004763634170706C69636174696F6E322E737265635A
S113000045C000004BC0000049C0000047C00000CC
S113001045C0000043C0000041C000003FC00000D4
S11300203DC000003BC0000039C0000037C00000E4
S113003035C0000033C0000031C000002FC00000F4
S11300402DC000002BC0000029C0000027C0000004
S113005025C0000023C0000021C000001FC0000014
S11300601DC000001BC0000019C0000017C0000024
S113007015C0000013C0000011C000000FC0000034
S11300800DC000000BC0000009C0000011241FBEF9
S1130090CFEFD0E4DEBFCDBF9FD0FDC1B1CF2F9253
S11300A03F924F925F926F927F928F929F92AF9204
S11300B0BF92CF92DF92EF92FF920F931F93CF9351
S11300C0DF935C014B01C0E0D0E0212C312C00E037
S11300D010E062C00F5F1F4FCE0187709927892BF4
S11300E071F4B401990C880B990BBED023E333E36C
S11300F043EB5FE345D185D04B0100E010E081E0A4
S113010090E0002E02C0880F991F0A94E2F782B98A
S1130110B401092C000C880B990BA6D02B013C01CF
S113012020E030E04AE753E42BD16B017C0120E06E
S113013030E040E85FE361D0882304F120E03FEF42
S11301404FE757E4C701B60117D118169CF420E015
S113015030E040E251E4C301B20112D157D006C0ED
S113016089E190E00197F1F761507109611571051A
S1130170B9F709C0C701B60149D002C061E070E017
S1130180CB010197F1F7C5010197C817D90719F4F5
S113019022242394312C2196CA15DB050CF49ACF22
S11301A081E090E002C0880F991F0A95E2F782B9B6
S11301B0C101DF91CF911F910F91FF90EF90DF90DC
S11301C0CF90BF90AF909F908F907F906F905F90F3
S11301D04F903F902F9008952FEF21B912B817B880
S11301E021E028B905C068EC70E08CE390E057DFAB
S11301F0892BC9F380E090E0089571D008F481E080
S1130200089504D06894B111B1C0089594D088F0D1
S11302109F5790F0B92F9927B751A0F0D1F0660FEE
S1130220771F881F991F1AF0BA95C9F712C0B13009
S113023081F09BD0B1E0089598C0672F782F88276C
S1130240B85F39F0B93FCCF3869577956795B39548
S1130250D9F73EF490958095709561957F4F8F4FB7
S11302609F4F0895E89409C097FB3EF490958095BC
S1130270709561957F4F8F4F9F4F9923A9F0F92F68
S113028096E9BB279395F695879577956795B795E6
S1130290F111F8CFFAF4BB0F11F460FF1BC06F5FCC
S11302A07F4F8F4F9F4F16C0882311F096E911C0DE
S11302B0772321F09EE8872F762F05C0662371F0FF
S11302C096E8862F70E060E02AF09A95660F771F13
S11302D0881FDAF7880F9695879597F90895990FEF
S11302E00008550FAA0BE0E8FEEF16161706E807FC
S11302F0F907C0F012161306E407F50798F0621B1D
S1130300730B840B950B39F40A2661F0232B242BF1
S1130310252B21F408950A2609F4A140A6958FEF10
S1130320811D811D089557FD9058440F551F59F0A4
S11303305F3F71F04795880F97FB991F61F09F3FCE
S113034079F087950895121613061406551FF2CFF7
S11303504695F1DF08C0161617061806991FF1CF47
S113036086957105610508940895E894BB2766276E
S11303707727CB0197F90895B2DF08F48FEF08953A
S11303800BD078C069D028F06ED018F0952309F00E
S11303905AC05FC01124EACFC6DFA0F3959FD1F302
S11303A0950F50E0551F629FF001729FBB27F00D1F
S11303B0B11D639FAA27F00DB11DAA1F649F662774
S11303C0B00DA11D661F829F2227B00DA11D621FC3
S11303D0739FB00DA11D621F839FA00D611D221F7D
S11303E0749F3327A00D611D231F849F600D211D61
S11303F0822F762F6A2F11249F5750408AF0E1F004
S113040088234AF0EE0FFF1FBB1F661F771F881F4C
S113041091505040A9F79E3F510570F014C0A6CFEB
S11304205F3FECF3983EDCF3869577956795B79537
S1130430F795E7959F5FC1F7FE2B880F911D969561
S1130440879597F9089597F99F6780E870E060E0D1
S113045008959FEF80EC089500240A941616170659
S113046018060906089500240A94121613061406A1
S113047005060895092E0394000C11F4882352F004
S1130480BB0F40F4BF2B11F460FF04C06F5F7F4FBC
S10D04908F4F9F4F0895F894FFCF9B
S9030000FC
