:100000000C9434000C9446000C9446000C9446006A
:100010000C9446000C9446000C9446000C94460048
:100020000C9446000C9446000C9446000C94460038
:100030000C9446000C9446000C9446000C94460028
:100040000C9446000C9446000C944F000C9446000F
:100050000C9446000C9446000C9446000C94460008
:100060000C9446000C94460011241FBECFEFD8E03C
:10007000DEBFCDBF21E0A0E0B1E001C01D92A23003
:10008000B207E1F70E948A000C94B0000C940000C3
:100090008091C0008823E4F78091C60008951F92E4
:1000A0000F920FB60F9211242F933F934F935F93AC
:1000B0006F937F938F939F93AF93BF93EF93FF9330
:1000C0000E94480080930101813321F481E08093F4
:1000D000000104C0803311F410920001FF91EF91F0
:1000E000BF91AF919F918F917F916F915F914F9150
:1000F0003F912F910F900FBE0F901F9018959093E6
:10010000C5008093C40088E98093C1008EE080938D
:10011000C200089584B18FEF84B987E690E00E9411
:100120007F00AAE7B0E08C918F688C93ECE7F0E059
:1001300080818064808380818F7D808378948081BA
:10014000807F80838C9180648C93809100018823D0
:1001500021F085B1806285B9F8CF85B115B8F5CFAA
:04016000F894FFCF41
:00000001FF
