:1000000045C0000060C000005EC000005CC0000091
:100010005AC0000058C0000056C0000054C0000084
:1000200052C0000050C000004EC000004DC0000093
:100030004AC0000048C0000046C0000044C00000A4
:1000400042C0000040C0000056C000003CC000009C
:100050003AC0000038C0000036C0000034C00000C4
:1000600032C0000030C000002EC000002CC00000D4
:100070002AC0000028C0000026C0000024C00000E4
:1000800022C0000020C000001EC0000011241FBEBE
:10009000CFEFD0E4DEBFCDBF11E0A0E0B1E0ECEEE9
:1000A000F8E000E00BBF02C007900D92AC30B10742
:1000B000D9F721E0ACE0B1E001C01D92A031B20758
:1000C000E1F711D111C49CCF1F920F920FB60F927E
:1000D00011248F939F9380910C0190910D010196B3
:1000E00090930D0180930C019F918F910F900FBE03
:1000F0000F901F9018951F920F920FB60F92112418
:100100000BB60F92CF92DF92EF92FF922F933F9315
:100110004F935F936F937F938F939F93AF93BF930F
:10012000EF93FF9360910E0170910F016F5F7F4F0E
:1001300070930F0160930E01189B1CC080E090E04B
:10014000CBD16B017C0120E030E048EF51E46091BD
:10015000040170910501809106019091070172D20E
:100160009B01AC01C701B60169D288231CF088B19C
:100170008E7F88B918990EC080910E0190910F0161
:10018000813E944038F088B1816088B910920F01A7
:1001900010920E01FF91EF91BF91AF919F918F91BE
:1001A0007F916F915F914F913F912F91FF90EF90D1
:1001B000DF90CF900F900BBE0F900FBE0F901F904F
:1001C000189510920D0110920C011092B200089532
:1001D0000AD360ED77E099D28053984F089511C308
:1001E0000895CF92DF92EF92FF926B017C016091B4
:1001F00008017091090180910A0190910B01A701FA
:1002000096011CD218165CF4C0920801D092090124
:10021000E0920A01F0920B0184E085B901C015B8A3
:10022000FF90EF90DF90CF90089580E090E0A0E005
:10023000B0E48093040190930501A0930601B0936C
:1002400007010895CF92DF92EF92FF926B017C013C
:100250002AE939E949E95EE33BD1882364F48AE974
:1002600099E9A9E9BEE38093040190930501A09365
:100270000601B09307012AE939E949E95EE3C701BC
:10028000B601DCD18823ACF02AE939E949E15FE322
:10029000C701B6011DD1882364F48DEC9CECACE45D
:1002A000BFE38093040190930501A0930601B093EE
:1002B00007012AE939E949E15FE3C701B601BED187
:1002C000882364F080E090E0A0ECBFE38093040119
:1002D00090930501A0930601B0930701FF90EF9062
:1002E000DF90CF90089574DFEC0187E084B915B8F2
:1002F0001AB884E08BB98FEF87B985B5816085BD69
:10030000EEE6F0E0808181608083E1EBF0E08081C7
:1003100086608083E0E7F0E080818160808378946C
:1003200000E010E04EDF80E090E0C817D90744F00D
:10033000EFE9FFE03197F1F700C000000196F5CF3B
:1003400085B1816085B93DDF89B18111FDCF85B16E
:10035000826085B960910C0170910D0180E090E0A0
:10036000BBD02FE632E143E85BE36CD16B017C014B
:100370006091B20070E080E090E0B0D027E137EB10
:1003800041ED5AE35FD19B01AC01C701B6013CD0FE
:100390006B017C01FFEF27EA81E6F15020408040AD
:1003A000E1F700C000000DDFC701B6011ADFB70199
:1003B000A601C80114DF0F5F1F4F15B802DF16BC7E
:1003C00034DF9FEFE3EDF0E39150E040F040E1F7E0
:1003D00000C0000063E373E383EB9FE333DF2FEFA1
:1003E00083E294EF215080409040E1F700C000008C
:1003F0001CDFEFEFFBE722E9E150F0402040E1F79E
:1004000000C000008FCF5058BB27AA270ED0DCC0F9
:10041000CDD030F0D2D020F031F49F3F11F41EF453
:10042000C2C00EF4E095E7FBB8C0E92FDED080F340
:10043000BA17620773078407950718F071F49EF5E1
:10044000F6C00EF4E0950B2EBA2FA02D0B01B901CA
:1004500090010C01CA01A0011124FF27591B99F03A
:10046000593F50F4503E68F11A16F040A22F232F46
:10047000342F4427585FF3CF469537952795A79596
:10048000F0405395C9F77EF41F16BA0B620B730B3D
:10049000840BBAF09150A1F0FF0FBB1F661F771FAE
:1004A000881FC2F70EC0BA0F621F731F841F48F463
:1004B000879577956795B795F7959E3F08F0B3CFE9
:1004C0009395880F08F09927EE0F979587950895D3
:1004D00040D008F481E00895E89409C097FB3EF409
:1004E00090958095709561957F4F8F4F9F4F992381
:1004F000A9F0F92F96E9BB279395F69587957795FF
:100500006795B795F111F8CFFAF4BB0F11F460FFBE
:100510001BC06F5F7F4F8F4F9F4F16C0882311F016
:1005200096E911C0772321F09EE8872F762F05C02A
:10053000662371F096E8862F70E060E02AF09A95C5
:10054000660F771F881FDAF7880F9695879597F9BA
:100550000895990F0008550FAA0BE0E8FEEF161654
:100560001706E807F907C0F012161306E407F507A7
:1005700098F0621B730B840B950B39F40A2661F01B
:10058000232B242B252B21F408950A2609F4A140BE
:10059000A6958FEF811D811D089597F99F6780E8CB
:1005A00070E060E008959FEF80EC089500240A94C5
:1005B0001616170618060906089500240A9412163E
:1005C0001306140605060895092E0394000C11F471
:1005D000882352F0BB0F40F4BF2B11F460FF04C01E
:1005E0006F5F7F4F8F4F9F4F089557FD9058440F77
:1005F000551F59F05F3F71F04795880F97FB991F82
:1006000061F09F3F79F0879508951216130614063E
:10061000551FF2CF4695F1DF08C0161617061806CB
:10062000991FF1CF86957105610508940895E894A6
:10063000BB2766277727CB0197F908958ADF08F44F
:100640008FEF08950BD0C0CFB1DF28F0B6DF18F0E0
:10065000952309F0A2CFA7CF1124EACFC6DFA0F3DC
:10066000959FD1F3950F50E0551F629FF001729F47
:10067000BB27F00DB11D639FAA27F00DB11DAA1F66
:10068000649F6627B00DA11D661F829F2227B00DB3
:10069000A11D621F739FB00DA11D621F839FA00D3E
:1006A000611D221F749F3327A00D611D231F849F8E
:1006B000600D211D822F762F6A2F11249F575040E5
:1006C0008AF0E1F088234AF0EE0FFF1FBB1F661F80
:1006D000771F881F91505040A9F79E3F510570F039
:1006E0005CCFA6CF5F3FECF3983EDCF38695779521
:1006F0006795B795F795E7959F5FC1F7FE2B880F34
:10070000911D9695879597F9089597FB072E16F4F6
:10071000009406D077FD08D00BD007FC05D03EF43E
:10072000909581959F4F0895709561957F4F08959D
:10073000AA1BBB1B51E107C0AA1FBB1FA617B70707
:1007400010F0A61BB70B881F991F5A95A9F7809523
:100750009095BC01CD0108958F929F92AF92BF9268
:10076000CF92DF92EF92FF92CF93DF93EC016881FB
:1007700079818A819B81611571058105910521F43B
:1007800064E279ED8BE597E02DE133EF41E050E055
:100790004ED049015A019B01AC01A7EAB1E463D0F4
:1007A0006B017C01ACEEB4EFA501940168D0DC01D3
:1007B000CB018C0D9D1DAE1DBF1DB7FF03C0019762
:1007C000A109B04888839983AA83BB839F77DF916F
:1007D000CF91FF90EF90DF90CF90BF90AF909F9020
:1007E0008F900895B9CF80E091E0B6CFA0E0B0E05F
:1007F0008093000190930101A0930201B093030143
:100800000895242F07D0252F05D000C002D0272F10
:1008100001C0262FF999FECF1FBA92BD81BD20BD20
:100820000FB6F894FA9AF99A0FBE01960895052E1C
:1008300097FB16F400940FD057FD05D024D007FC89
:1008400002D046F408C050954095309521953F4F11
:100850004F4F5F4F089590958095709561957F4FAC
:100860008F4F9F4F089531D0A59F900DB49F900D4D
:10087000A49F800D911D11240895B7FFF4CFF3DFDD
:10088000821B930B0895A1E21A2EAA1BBB1BFD012C
:100890000DC0AA1FBB1FEE1FFF1FA217B307E4075F
:1008A000F50720F0A21BB30BE40BF50B661F771FB7
:1008B000881F991F1A9469F7609570958095909597
:1008C0009B01AC01BD01CF010895A29FB001B39F70
:1008D000C001A39F700D811D1124911DB29F700D49
:0C08E000811D1124911D0895F894FFCF94
:0C08EC00010000000000803F6666863FAF
:00000001FF
