:1000000045C0000053C0000051C000004FC00000B8
:100010004DC000004BC0000049C0000047C00000B8
:1000200045C0000043C0000041C000003FC00000C8
:100030003DC000003BC0000039C0000037C00000D8
:1000400035C0000033C0000032C000002FC00000E7
:100050002DC000002BC0000029C0000027C00000F8
:1000600025C0000023C0000021C000001FC0000008
:100070001DC000001BC0000019C0000017C0000018
:1000800015C0000013C0000011C0000011241FBEE5
:10009000CFEFD0E4DEBFCDBF21E0A0E0B1E001C0F2
:1000A0001D92A430B207E1F751D078C0A9CF1F92BA
:1000B0000F920FB60F9211242F933F934F938F936C
:1000C0009F9380910001909101010196909301010D
:1000D00080930001309B14C0809102019091030134
:1000E0004EE3489F9001499F300D112480910001FB
:1000F000909101018217930718F088B18E7F88B91B
:1001000030990EC08091000190910101813E944090
:1001100038F088B1816088B9109201011092000115
:100120009F918F914F913F912F910F900FBE0F9004
:100130001F90189582E090E0909303018093020154
:100140000895109203011092020108958FEF87B96C
:1001500016BC85B5816085BDEEE6F0E080818160EA
:10016000808316BC85B5816085BD80818160808378
:100170007894E0DF2FEF83ED90E3215080409040B2
:10018000E1F700C00000DDDF2FEF83ED90E32150A9
:1001900080409040E1F700C00000EBCFF894FFCF23
:00000001FF
