S01400004C616220417373656D626C792E73726563A1
S11300000C9434000C943E000C943E000C943E007E
S11300100C943E000C943E000C943E000C943E0064
S11300200C943E000C943E000C943E000C943E0054
S11300300C943E000C943E000C943E000C943E0044
S11300400C943E000C943E000C943E000C943E0034
S11300500C943E000C943E000C943E000C943E0024
S11300600C943E000C943E0011241FBECFEFD8E048
S1130070DEBFCDBF0E9440000C945A000C940000D7
S1130080CF93DF9300D000D000D0CDB7DEB784E0AB
S113009090E09A83898383E090E09C838B832B8117
S11300A03C8189819A81820F931F9E838D831E8256
S10B00B01D82FFCFF894FFCF7D
S9030000FC
