:100000000C9434000C9446000C9446000C9446006A
:100010000C9446000C9446000C9446000C94460048
:100020000C9446000C9446000C9446000C94460038
:100030000C9446000C9446000C9446000C94460028
:100040000C9446000C9446000C9446000C94460018
:100050000C9446000C9448000C9446000C94460006
:100060000C9446000C94460011241FBECFEFD8E03C
:10007000DEBFCDBF21E0A0E0B1E001C01D92A23003
:10008000B207E1F70E9482000C9488000C940000F3
:100090001F920F920FB60F9211248F939F9380910E
:1000A00078009091790090930101809300019F91D5
:1000B0008F910F900FBE0F901F90189584B18260A2
:1000C00084B9E0E8F0E0808182688083E1E8F0E0D4
:1000D00080818361808388EE93E090938700809392
:1000E000860084E893E090938900809388000895C7
:1000F0008AB180648AB983E884BD83E085BD88E2E3
:1001000087BD08950E945E000E9478007894FFCF1A
:04011000F894FFCF91
:00000001FF
